:020000040800F2
:100000000050002019570008191200081D1200089E
:100010002112000825120008291200080000000023
:100020000000000000000000000000002D12000889
:1000300031120008000000003512000839120008D3
:1000400061570008615700086157000861570008B0
:1000500061570008615700086157000861570008A0
:100060006157000861570008615700084D120008E9
:100070006157000861570008615700086157000880
:100080006157000861570008615700086157000870
:100090006157000861570008615700086157000860
:1000A0006157000861570008615700086157000850
:1000B00061570008615700085D1200086157000889
:1000C0006157000861570008615700086157000830
:1000D0006157000861570008615700086157000820
:1000E00061570008615700086157000800000000D0
:1000F0000000000000000000000000000000000000
:0C01000000000000000000005FF808F1A3
:1001100010B5054C237833B9044B13B10448AFF341
:1001200000800123237010BD480100200000000062
:10013000105A0008084B10B51BB108490848AFF326
:1001400000800848036803B910BD074B002BFBD0A3
:10015000BDE81040184700BF000000004C0100201F
:10016000105A0008480100200000000081F0004102
:1001700002E000BF83F0004330B54FEA41044FEA8C
:10018000430594EA050F08BF90EA020F1FBF54EA27
:10019000000C55EA020C7FEA645C7FEA655C00F0C3
:1001A000E2804FEA5454D4EB5555B8BF6D420CDD94
:1001B0002C4480EA020281EA030382EA000083EA17
:1001C000010180EA020281EA0303362D88BF30BDB7
:1001D00011F0004F4FEA01314FF4801C4CEA11310D
:1001E00002D0404261EB410113F0004F4FEA03336C
:1001F0004CEA133302D0524263EB430394EA050FF7
:1002000000F0A780A4F10104D5F1200E0DDB02FA65
:100210000EFC22FA05F2801841F1000103FA0EF2F9
:10022000801843FA05F359410EE0A5F120050EF1BF
:10023000200E012A03FA0EFC28BF4CF0020C43FAF0
:1002400005F3C01851EBE37101F0004507D54FF0FD
:10025000000EDCF1000C7EEB00006EEB0101B1F54D
:10026000801F1BD3B1F5001F0CD349085FEA300093
:100270004FEA3C0C04F101044FEA445212F5800F9E
:1002800080F09A80BCF1004F08BF5FEA500C50F13B
:10029000000041EB045141EA050130BD5FEA4C0C1E
:1002A000404141EB010111F4801FA4F10104E9D1A7
:1002B00091F0000F04BF01460020B1FA81F308BF9E
:1002C0002033A3F10B03B3F120020CDA0C3208DD6A
:1002D00002F1140CC2F10C0201FA0CF021FA02F145
:1002E0000CE002F11402D8BFC2F1200C01FA02F1B5
:1002F00020FA0CFCDCBF41EA0C019040E41AA2BFDA
:1003000001EB0451294330BD6FEA04041F3C1CDAA1
:100310000C340EDC04F11404C4F1200220FA04F0C1
:1003200001FA02F340EA030021FA04F345EA03016B
:1003300030BDC4F10C04C4F1200220FA02F001FA2D
:1003400004F340EA0300294630BD21FA04F02946AF
:1003500030BD94F0000F83F4801306BF81F4801148
:100360000134013D4EE77FEA645C18BF7FEA655CBB
:1003700029D094EA050F08BF90EA020F05D054EA8D
:10038000000C04BF1946104630BD91EA030F1EBF92
:100390000021002030BD5FEA545C05D14000494196
:1003A00028BF41F0004130BD14F580043CBF01F589
:1003B000801130BD01F0004545F0FE4141F470016F
:1003C0004FF0000030BD7FEA645C1ABF194610464A
:1003D0007FEA655C1CBF0B46024650EA013406BF4B
:1003E00052EA033591EA030F41F4002130BD00BF0A
:1003F00090F0000F04BF0021704730B54FF48064C7
:1004000004F132044FF000054FF0000150E700BF47
:1004100090F0000F04BF0021704730B54FF48064A6
:1004200004F1320410F0004548BF40424FF0000193
:100430003EE700BF42004FEAE2014FEA31014FEAD6
:1004400002701FBF12F07F4393F07F4F81F0605125
:10045000704792F0000F14BF93F07F4F704730B594
:100460004FF4607401F0004521F0004120E700BF27
:1004700050EA010208BF704730B54FF000050AE0AE
:1004800050EA010208BF704730B511F0004502D5AF
:10049000404261EB41014FF4806404F132045FEAB1
:1004A000915C3FF4DCAE4FF003025FEADC0C18BF56
:1004B00003325FEADC0C18BF033202EBDC02C2F14C
:1004C000200300FA03FC20FA02F001FA03FE40EADE
:1004D0000E0021FA02F11444C1E600BF70B54FF0DE
:1004E000FF0C4CF4E06C1CEA11541DBF1CEA1355C0
:1004F00094EA0C0F95EA0C0F00F0DEF82C4481EA28
:10050000030621EA4C5123EA4C5350EA013518BF47
:1005100052EA033541F4801143F4801338D0A0FB34
:1005200002CE4FF00005E1FB02E506F00042E0FBE1
:1005300003E54FF00006E1FB03569CF0000F18BFE7
:100540004EF0010EA4F1FF04B6F5007F64F540748F
:1005500004D25FEA4E0E6D4146EB060642EAC62122
:1005600041EA55514FEAC52040EA5E504FEACE2E8F
:10057000B4F1FD0C88BFBCF5E06F1ED8BEF1004F92
:1005800008BF5FEA500E50F1000041EB045170BD0E
:1005900006F0004646EA010140EA020081EA030152
:1005A000B4EB5C04C2BFD4EB0C0541EA045170BD4E
:1005B00041F480114FF0000E013C00F3AB8014F1C8
:1005C000360FDEBF002001F0004170BDC4F1000411
:1005D000203C35DA0C341BDC04F11404C4F1200592
:1005E00000FA05F320FA04F001FA05F240EA0200ED
:1005F00001F0004221F0004110EBD37021FA04F623
:1006000042EB06015EEA430E08BF20EAD37070BDDC
:10061000C4F10C04C4F1200500FA04F320FA05F03B
:1006200001FA04F240EA020001F0004110EBD3703D
:1006300041F100015EEA430E08BF20EAD37070BDAD
:10064000C4F1200500FA05F24EEA020E20FA04F386
:1006500001FA05F243EA020321FA04F001F0004135
:1006600021FA04F220EA020000EBD3705EEA430EA6
:1006700008BF20EAD37070BD94F0000F0FD101F0D5
:100680000046400041EB010111F4801F08BF013C0E
:10069000F7D041EA060195F0000F18BF704703F04C
:1006A0000046520043EB030313F4801F08BF013DD3
:1006B000F7D043EA0603704794EA0C0F0CEA13558F
:1006C00018BF95EA0C0F0CD050EA410618BF52EA49
:1006D0004306D1D181EA030101F000414FF000004F
:1006E00070BD50EA410606BF1046194652EA43065D
:1006F00019D094EA0C0F02D150EA013613D195EAD1
:100700000C0F05D152EA03361CBF104619460AD118
:1007100081EA030101F0004141F0FE4141F4700122
:100720004FF0000070BD41F0FE4141F4780170BD12
:1007300070B54FF0FF0C4CF4E06C1CEA11541DBF77
:100740001CEA135594EA0C0F95EA0C0F00F0A7F879
:10075000A4EB050481EA030E52EA03354FEA0131A6
:1007600000F088804FEA03334FF0805545EA1313B9
:1007700043EA12634FEA022245EA111545EA106581
:100780004FEA00260EF000419D4208BF964244F118
:10079000FD0404F5407402D25B084FEA3202B61A37
:1007A00065EB03055B084FEA32024FF480104FF40B
:1007B000002CB6EB020E75EB030E22BFB61A75467F
:1007C00040EA0C005B084FEA3202B6EB020E75EB12
:1007D000030E22BFB61A754640EA5C005B084FEA7A
:1007E0003202B6EB020E75EB030E22BFB61A754647
:1007F00040EA9C005B084FEA3202B6EB020E75EB52
:10080000030E22BFB61A754640EADC0055EA060E12
:1008100018D04FEA051545EA16754FEA06164FEA55
:10082000C30343EA52734FEAC2025FEA1C1CC0D101
:1008300011F4801F0BD141EA00014FF000004FF08E
:10084000004CB6E711F4801F04BF01430020B4F14F
:10085000FD0C88BFBCF5E06F3FF6AFAEB5EB030C07
:1008600004BFB6EB020C5FEA500C50F1000041EB04
:10087000045170BD0EF0004E4EEA113114EB5C04D1
:10088000C2BFD4EB0C0541EA045170BD41F48011A4
:100890004FF0000E013C90E645EA060E8DE60CEAAC
:1008A000135594EA0C0F08BF95EA0C0F3FF43BAFC9
:1008B00094EA0C0F0AD150EA01347FF434AF95EA80
:1008C0000C0F7FF425AF104619462CE795EA0C0F64
:1008D00006D152EA03353FF4FDAE1046194622E731
:1008E00050EA410618BF52EA43067FF4C5AE50EA0B
:1008F00041047FF40DAF52EA43057FF4EBAE12E7FB
:100900004FF0FF3C06E000BF4FF0010C02E000BFDB
:100910004FF0010C4DF804CD4FEA410C7FEA6C5CBE
:100920004FEA430C18BF7FEA6C5C1BD001B050EA61
:10093000410C0CBF52EA430C91EA030F02BF90EA4C
:10094000020F0020704710F1000F91EA030F58BF0B
:10095000994208BF90422CBFD8176FEAE37040F06D
:10096000010070474FEA410C7FEA6C5C02D150EA0B
:10097000013C07D14FEA430C7FEA6C5CD6D152EAC6
:10098000033CD3D05DF8040B704700BF844610468B
:1009900062468C461946634600E000BF01B5FFF78A
:1009A000B7FF002848BF10F1000F01BD4DF808ED5A
:1009B000FFF7F4FF0CBF012000205DF808FB00BF2B
:1009C0004DF808EDFFF7EAFF34BF012000205DF885
:1009D00008FB00BF4DF808EDFFF7E0FF94BF0120D2
:1009E00000205DF808FB00BF4DF808EDFFF7CEFFD3
:1009F00094BF012000205DF808FB00BF4DF808ED12
:100A0000FFF7C4FF34BF012000205DF808FB00BFE2
:100A10004FEA410C7FEA6C5C02D150EA013C0AD1FA
:100A20004FEA430C7FEA6C5C02D152EA033C02D1EC
:100A30004FF0000070474FF0010070474FEA41024D
:100A400012F5001215D211D56FF47873B3EB625220
:100A500012D94FEAC12343F0004343EA505311F047
:100A6000004F23FA02F018BF404270474FF00000D9
:100A7000704750EA013005D111F0004008BF6FF017
:100A8000004070474FF00000704700BF80F000400A
:100A900002E000BF81F0004142001FBF5FEA410356
:100AA00092EA030F7FEA226C7FEA236C6AD04FEA56
:100AB0001262D2EB1363C1BFD2184140484041409B
:100AC000B8BF5B42192B88BF704710F0004F40F44D
:100AD000000020F07F4018BF404211F0004F41F469
:100AE000000121F07F4118BF494292EA030F3FD035
:100AF000A2F1010241FA03FC10EB0C00C3F1200348
:100B000001FA03F100F0004302D5494260EB4000D6
:100B1000B0F5000F13D3B0F1807F06D340084FEA41
:100B2000310102F10102FE2A51D2B1F1004F40EB36
:100B3000C25008BF20F0010040EA0300704749009E
:100B400040EB000010F4000FA2F10102EDD1B0FA69
:100B500080FCACF1080CB2EB0C0200FA0CF0AABF5E
:100B600000EBC25052421843BCBFD04018437047FC
:100B700092F0000F81F4000106BF80F40000013202
:100B8000013BB5E74FEA41037FEA226C18BF7FEAD9
:100B9000236C21D092EA030F04D092F0000F08BF1B
:100BA0000846704790EA010F1CBF0020704712F002
:100BB0007F4F04D1400028BF40F00040704712F141
:100BC00000723CBF00F50000704700F0004343F0A6
:100BD000FE4040F4000070477FEA226216BF0846DC
:100BE0007FEA23630146420206BF5FEA412390EA9F
:100BF000010F40F4800070474FF0000304E000BF95
:100C000010F0004348BF40425FEA000C08BF704745
:100C100043F0964301464FF000001CE050EA010209
:100C200008BF70474FF000030AE000BF50EA01021E
:100C300008BF704711F0004302D5404261EB41010B
:100C40005FEA010C02BF84460146002043F0B64330
:100C500008BFA3F18053A3F50003BCFA8CF2083A55
:100C6000A3EBC25310DB01FA02FC634400FA02FC5E
:100C7000C2F12002BCF1004F20FA02F243EB020065
:100C800008BF20F00100704702F1200201FA02FCC7
:100C9000C2F1200250EA4C0021FA02F243EB0200BA
:100CA00008BF20EADC7070474FF0FF3C06E000BF51
:100CB0004FF0010C02E000BF4FF0010C4DF804CDE5
:100CC0004FEA40024FEA41037FEA226C18BF7FEAF5
:100CD000236C11D001B052EA530C18BF90EA010FF7
:100CE00058BFB2EB030088BFC81738BF6FEAE17086
:100CF00018BF40F0010070477FEA226C02D15FEA22
:100D0000402C05D17FEA236CE4D15FEA412CE1D08D
:100D10005DF8040B704700BF844608466146FFE754
:100D20000FB5FFF7C9FF002848BF10F1000F0FBD36
:100D30004DF808EDFFF7F4FF0CBF012000205DF82F
:100D400008FB00BF4DF808EDFFF7EAFF34BF0120B4
:100D500000205DF808FB00BF4DF808EDFFF7E0FF4D
:100D600094BF012000205DF808FB00BF4DF808ED9E
:100D7000FFF7D2FF94BF012000205DF808FB00BF01
:100D80004DF808EDFFF7C8FF34BF012000205DF8E3
:100D900008FB00BFFEE700BF00B595B02822002188
:100DA0000DEB020004F004FD002305930693079366
:100DB00008930993019302930393049302230A93E4
:100DC00001220E9210220F9211934FF4601313938D
:100DD0000AA801F0DBF808B1FFF7DCFF0F23059349
:100DE00002210691002307934FF480620892099331
:100DF00005A801F003FB08B1FFF7CCFF0223019324
:100E00004FF40043039301A801F0CCFB08B1FFF7B6
:100E1000C1FF15B05DF804FB00B587B001F068F8BC
:100E2000FFF7BAFF00F050F800F02AF900F08AF856
:100E300000F040F900F09AF91F4B1B6898471F4BD0
:100E40005B6A98471E4B1B6898471E4C4FF4807195
:100E5000204601F02BFDC82001F06EF84FF48071A0
:100E6000204601F023FDC82001F066F84FF48071A0
:100E7000204601F01BFDC82001F05EF84FF48071A0
:100E8000204601F013FD0D4CA36A98470C4B5D689A
:100E9000E3692269E1682068A6680496666803969B
:100EA000266A029666690196A4690094A847012003
:100EB00001F042F8E7E700BF540000206C0000207A
:100EC0005C000020000C014070B586B00024029444
:100ED000039404940594184B9A6942F004029A61B1
:100EE0009A6902F004020092009A9A6942F008029C
:100EF0009A619B6903F008030193019B0F4D224601
:100F00004FF49C71284601F0CBFC302302930394EC
:100F10000126049602A90A4801F0CEFB4FF49C7307
:100F20000293039604940223059302A9284601F034
:100F3000C3FB06B070BD00BF00100240000C0140B2
:100F40000008014000B585B000230193029303938C
:100F50002348244A02604FF4807282600122C260FA
:100F600043614FF46022C26143600423036100F0D7
:100F700087FB08B1FFF70EFF0023019301230293C3
:100F8000042303930DEB0301154800F0D3F908B1D6
:100F9000FFF700FF012301930223029301A91048E8
:100FA00000F0C8F908B1FFF7F5FE0223019303230F
:100FB000029301A90A4800F0BDF908B1FFF7EAFE63
:100FC00003230193042302930DEB0301044800F073
:100FD000B1F908B1FFF7DEFE05B05DF804FB00BF14
:100FE000740100200024014010B586B00023029354
:100FF00003930493059302681D4B9A4235D104462E
:1010000003F56C439A6942F400729A619A6902F49A
:1010100000720092009A9A6942F004029A619B69F8
:1010200003F004030193019B0F2302930323039313
:1010300002A9104801F040FB0F48104B0360002349
:10104000436083608022C2604FF4807202614FF47B
:101050008062426120228261C36101F041FC08B1DB
:10106000FFF798FE044B23625C6206B010BD00BF20
:101070000024014000080140A401002008000240B3
:1010800000B583B00A4B5A6942F001025A615B69AC
:1010900003F001030193019B002211460B2001F094
:1010A00045FD0B2001F074FD03B05DF804FB00BFAB
:1010B0000010024008B50D480D4B03604FF48273D9
:1010C000436000238360C360036143614FF4007297
:1010D0008261C3610362436283620A23C36200F0D8
:1010E0008BFC08B1FFF756FE08BD00BFE8010020E9
:1010F0000038004010B586B0002302930393049398
:1011000005930268174B9A4229D103F5EC33DA694B
:1011100042F48042DA61DA6902F480420092009A75
:101120009A6942F008029A619B6903F008030193EF
:10113000019B4FF42043029302230393032305935F
:10114000094C02A9204601F0B7FA4FF480430293FC
:1011500000230393049302A9204601F0ADFA06B0E0
:1011600010BD00BF00380040000C014000B587B042
:10117000002302930393049305930093019314486F
:10118000144A026040F67F42426083606322C2607C
:101190000361836100F03CFE08B1FFF7FBFD06A987
:1011A0004FF4805341F8103D094800F0ADFC08B100
:1011B000FFF7F0FD0023009301936946044800F017
:1011C00043FE08B1FFF7E6FD07B05DF804FB00BF82
:1011D000400200200008004002680E4B9A4217D1DE
:1011E00000B583B003F50233DA6942F00402DA6134
:1011F000DB6903F004030193019B002211461E20CA
:1012000001F094FC1E2001F0C3FC03B05DF804FB68
:10121000704700BF00080040704700BFFEE700BFF6
:10122000FEE700BFFEE700BFFEE700BF704700BF5C
:10123000704700BF704700BF08B500F06BFE024A60
:1012400013680133136008BD6401002008B502482B
:1012500001F0B8FB08BD00BFA401002008B502489A
:1012600000F0E4FC08BD00BF4002002082B00E4B3D
:101270009A6942F001029A619A6902F001020092B1
:10128000009ADA6942F08052DA61DB6903F0805338
:101290000193019B054A536823F0E06343F0007318
:1012A000536002B0704700BF0010024000000140D0
:1012B000704700BF08B5436A9A6A12F0500F1CD1FC
:1012C0009A6A42F400729A621A68926802F4602282
:1012D000B2F5602F0DD1DA685AB99A6A22F4807299
:1012E0009A629A6A12F4805F03D19A6A42F001020C
:1012F0009A621846FFF7DCFF08BD1B6A1B6B984714
:1013000008BD00BF704700BF08B5406AFFF7FAFF8D
:1013100008BD00BF704700BF08B5406A836A43F04C
:1013200040038362C36A43F00403C362FFF7F2FF22
:1013300008BD00BF70B483B00023019390F824303F
:10134000012B00F08880012380F824304B68062BA5
:101350000ED80668756B03EB8303053B1F249C4086
:1013600025EA04040A6802FA03F3234373631EE0C8
:101370000C2B0ED805682A6B03EB8303233B1F2439
:101380009C4022EA04040A6802FA03F323432B6315
:101390000DE00568EA6A03EB8303413B1F249C4090
:1013A00022EA04040A6802FA03F32343EB620B689F
:1013B000092B0ED90668F56803EB43031E3B07248F
:1013C0009C4025EA04048A6802FA03F32343F3608D
:1013D0000CE00668356903EB430307249C4025EACB
:1013E00004048A6802FA03F3234333610B68103B59
:1013F000012B26D803681A4A93421CD19A6812F42A
:10140000000F20D19A6842F400029A600B68102BFA
:101410001BD1144B1B68144AA2FB03239B0C03EB48
:1014200083035A00019202E0019B013B0193019B5F
:10143000002BF9D10AE0836A43F020038362012381
:1014400004E0002302E0002300E00023002280F8F3
:101450002420184600E0022003B070BC704700BF93
:10146000002401400800002083DE1B4330B583B018
:101470000023019303689A6812F0010F2FD19A6834
:1014800042F001029A60174B1B68174AA2FB032324
:101490009B0C019302E0019B013B0193019B002BFC
:1014A000F9D1044600F042FD054611E000F03EFD92
:1014B000401B02280CD9A36A43F01003A362E36A1D
:1014C00043F00103E362002384F82430012007E0A5
:1014D00023689B6813F0010FE8D0002000E0002093
:1014E00003B030BD0800002083DE1B43F8B504685C
:1014F0004A4DAC4203D005F58065AC4205D1474B5F
:101500005B6813F4702F40F0858090F82440012C24
:1015100000F0828017460E460446012380F82430EE
:10152000FFF7A4FF0546002870D1A36A23F4706377
:1015300023F0010343F48073A3622268384B9A427C
:1015400005D1A3F580635B6813F4702F0ED1A36AF5
:1015500023F48013A362536813F4806F1CD0A36A32
:1015600023F4405343F48053A36215E0A36A43F489
:101570008013A362294B9A4203D003F580639A42F9
:101580000AD1264B5B6813F4806F05D0A36A23F45D
:10159000405343F48053A362A36A13F4805F04D0E2
:1015A000E36A23F00603E36201E00023E362002321
:1015B00084F82430236A1B4A9A62236A1A4ADA6240
:1015C000236A1A4A1A6323686FF002021A602268BB
:1015D000936843F48073936021683B4632464C31F4
:1015E000206A01F0B5F92268936803F46023B3F52B
:1015F000602F05D1936843F4A00393602846F8BD9B
:10160000936843F4801393602846F8BD002384F860
:101610002430F8BD0120F8BD0220F8BD00240140AF
:1016200000280140B512000809130008191300082A
:1016300038B503689A6812F0010F1ED004469A6804
:1016400022F001029A6000F071FC05460EE000F005
:101650006DFC401B022809D9A36A43F01003A36262
:10166000E36A43F00103E362012038BD23689B680D
:1016700013F0010FEBD1002038BD002038BD00BFB2
:1016800000287DD038B50446836A23B9C36280F848
:101690002430FFF7A9FC2046FFF7CAFFA36A13F026
:1016A000100F67D1002865D1A36A23F4885323F073
:1016B000020343F00203A3626268E3691343E16833
:1016C00043EA4103A268B2F5807F04D0012A05D124
:1016D0004FF4807503E04FF4807500E000256269E7
:1016E000012A0FD131B9A269013A45EA423242F4E6
:1016F000006507E0A26A42F02002A262E26A42F0BC
:101700000102E26221684A6822F469422A434A607F
:1017100021688D681B4A2A401A438A60A268B2F584
:10172000807F01D0012A03D12269013A110500E02E
:1017300000212568EA6A22F470020A43EA622268FC
:101740009168114A0A40934208D10023E362A36AD8
:1017500023F0030343F00103A36238BDA36A23F01F
:10176000120343F01003A362E36A43F00103E36250
:10177000012038BDA36A43F01003A362012038BDE5
:1017800001207047FDF7E1FFFE0E1FFFF8B505468B
:101790000F4616461C4636E0B4F1FF3F33D02CB15D
:1017A00000F0C4FB069BC01A84422CD82A685368F8
:1017B00023F0E00353606B68B3F5827F0BD1AB6815
:1017C000B3F5004F02D0B3F5806F04D12A681368D7
:1017D00023F040031360AB6AB3F5005F0BD12A68B6
:1017E000136823F400531B041B0C13602A6813684E
:1017F00043F400531360012385F85130002385F82A
:1018000050300320F8BD2B689B6837EA030301D1F1
:10181000012300E00023B342BED10020F8BD00BF89
:1018200010B582B0044600920B4600228021FFF7DB
:10183000ADFF034620B1636D43F0200363650323CE
:10184000184602B010BD00BF2DE9F04184B01D461E
:1018500090F85030012B00F0CB8004460E469046A5
:10186000012380F8503000F061FB074694F85130B6
:10187000DBB2012B40F0A480002E00F0A380B8F171
:10188000000F00F0A180032384F85130002363652A
:101890002663A4F83480A4F83680A363A387E38783
:1018A00063642364A368B3F5004F04D1226813680E
:1018B00043F48043136023681A6812F0400F03D189
:1018C0001A6842F040021A60E368B3F5006F2CD149
:1018D00063681BB1E38E9BB2012B21D1236836F8DC
:1018E000022BDA60E38E9BB2013B9BB2E38617E0EA
:1018F00023689A6812F0020F08D036F8022BDA60DB
:10190000E38E9BB2013B9BB2E38609E0002D5DD0E4
:10191000B5F1FF3F04D000F009FBC01B854257D949
:10192000E38E9BB2002BE3D12BE063681BB1E38E07
:101930009BB2012B21D1236816F8012B1A73E38E79
:101940009BB2013B9BB2E38617E023689A6812F0D2
:10195000020F08D016F8012B1A73E38E9BB2013BDD
:101960009BB2E38609E0002D34D0B5F1FF3F04D0EF
:1019700000F0DCFAC01B85422ED9E38E9BB2002B0F
:10198000E3D100972B46012202212046FFF7FEFEFD
:1019900020BB3A4629462046FFF742FF18B12023D4
:1019A000636501201DE0A36833B903932368DA68F7
:1019B00003929B680393039B636D8BB9002010E037
:1019C00002200EE001200CE001200AE0032008E0E4
:1019D000032006E0032004E0032002E0032000E0EF
:1019E0000120012384F85130002384F8503000E0B6
:1019F000022004B0BDE8F08100283CD010B50446B8
:101A00000023836290F8513013F0FF0F01D1FFF7EC
:101A100071FB022384F851302268136823F04003DD
:101A2000136021686268A3681A43E3681A43236954
:101A30001A4363691A43A36903F400731343E26909
:101A40001343226A1343A26A1A430A602168638B14
:101A500003F00402636A13434B602368E26A1A616D
:101A60002268D36923F40063D361002060650123F9
:101A700084F8513010BD0120704700BF10B4036AD4
:101A8000046A24F001040462846924F0F00444EA46
:101A9000021223F00A0319438261016210BC7047ED
:101AA00010B4036A23F0100303628469036A24F408
:101AB000704444EA023223F0A00343EA0111826138
:101AC000016210BC704700BF836823F0700341F0CF
:101AD00007010B438360704710B4846824F47F448B
:101AE00042EA0323194344EA0103836010BC7047B0
:101AF0000268D36843F00103D3600268136843F0BF
:101B0000010313600020704790F83C30012B00F077
:101B1000838010B50446012380F83C30022380F80E
:101B20003D300268936823F47F4323F0770393608A
:101B30000B68402B4CD00AD8102B58D002D8002B61
:101B400050D062E0202B57D0302B5AD05DE0702B64
:101B500012D004D8502B27D0602B2FD055E0B3F5EE
:101B6000805F03D0B3F5005F12D04EE00268936847
:101B700023F00703936048E0CB684A6889680068EF
:101B8000FFF7AAFF2268936843F0770393603CE075
:101B9000CB684A6889680068FFF79EFF22689368EF
:101BA00043F48043936030E0CA6849680068FFF7F7
:101BB00065FF50212068FFF787FF26E0CA68496863
:101BC0000068FFF76DFF60212068FFF77DFF1CE0D4
:101BD000CA6849680068FFF751FF40212068FFF795
:101BE00073FF12E000210068FFF76EFF0DE0102187
:101BF0000068FFF769FF08E020210068FFF764FF35
:101C000003E030210068FFF75FFF012384F83D30D7
:101C1000002084F83C0010BD02207047704700BFD0
:101C2000704700BF704700BF704700BF10B5044643
:101C300003681A6912F0020F17D0DA6812F0020F67
:101C400013D06FF002021A610123037703689B69C6
:101C500013F0030F02D0FFF7E3FF04E0FFF7DEFF0E
:101C60002046FFF7DFFF0023237723681A6912F06D
:101C7000040F19D0DA6812F0040F15D06FF00402C7
:101C80001A610223237723689B6913F4407F03D0F2
:101C90002046FFF7C5FF05E02046FFF7BFFF2046BF
:101CA000FFF7C0FF0023237723681A6912F0080F9B
:101CB00019D0DA6812F0080F15D06FF008021A6117
:101CC000042323772368DB6913F0030F03D0204636
:101CD000FFF7A6FF05E02046FFF7A0FF2046FFF72D
:101CE000A1FF0023237723681A6912F0100F19D07F
:101CF000DA6812F0100F15D06FF010021A61082385
:101D000023772368DB6913F4407F03D02046FFF775
:101D100087FF05E02046FFF781FF2046FFF782FF9F
:101D20000023237723681A6912F0010F09D0DA68BB
:101D300012F0010F05D06FF001021A61204602F087
:101D400099F823681A6912F0800F09D0DA6812F046
:101D5000800F05D06FF080021A61204600F0A0F8D5
:101D600023681A6912F0400F09D0DA6812F0400FA8
:101D700005D06FF040021A612046FFF755FF236837
:101D80001A6912F0200F09D0DA6812F0200F05D07E
:101D90006FF020021A61204600F080F810BD00BFED
:101DA00003681A4A90420AD0B0F1804F07D0A2F5DA
:101DB0009432904203D002F58062904203D123F026
:101DC00070034A681343114A90420AD0B0F1804F21
:101DD00007D0A2F59432904203D002F5806290427F
:101DE00003D123F44073CA68134323F080034A6984
:101DF000134303608B68C3620B688362034B984292
:101E000001D10B690363012343617047002C01403A
:101E1000B8B110B5044690F83D3013F0FF0F04D16F
:101E2000002380F83C30FFF7D7F9022384F83D30D7
:101E3000211D2068FFF7B4FF012384F83D30002006
:101E400010BD0120704700BF90F83C30012B21D01D
:101E500030B4012280F83C20022380F83D30046831
:101E6000636823F070036360046865680B682B4344
:101E700063600468A36823F08003A3600468A56816
:101E80004B682B43A36080F83D20002380F83C3052
:101E9000184601E00220704730BC7047704700BF11
:101EA000704700BF10B504460E4B18784FF47A7394
:101EB000B3FBF0F30C4A1068B0FBF3F000F074FED3
:101EC00058B90F2C0BD8002221464FF0FF3000F0FC
:101ED0002DFE064B1C60002010BD012010BD01200E
:101EE00010BD00BF040000200800002000000020FA
:101EF00008B5074A136843F010031360032000F08D
:101F000003FE0020FFF7CEFFFFF7B0F9002008BD69
:101F100000200240034A1368034909780B44136008
:101F2000704700BF8002002004000020014B1868A9
:101F3000704700BF8002002038B50446FFF7F6FF67
:101F40000546B4F1FF3F02D0044B1B781C44FFF759
:101F5000EDFF401B8442FAD838BD00BF04000020CA
:101F600082B0084B1B68084AA2FB03235B0A00FBF4
:101F700003F0019000BF019B5A1E0192002BF9D182
:101F800002B0704708000020D34D621070B582B0D7
:101F90000446036813F0010F6BD0A84B5B6803F095
:101FA0000C03042B0AD0A54B5B6803F00C03082B31
:101FB0000DD1A24B5B6813F4803F08D09F4B1B6888
:101FC00013F4003F55D06368002B52D1B8E1636829
:101FD000B3F5803F05D1994A136843F48033136009
:101FE00026E063B903F1804303F504331A6822F451
:101FF00080321A601A6822F480221A6018E0B3F561
:10200000A02F0CD103F18043A3F53C331A6842F4AE
:1020100080221A601A6842F480321A6008E0874B06
:102020001A6822F480321A601A6822F480221A6038
:1020300063687BB1FFF77AFF054605E0FFF776FF9F
:10204000401B642800F27E817C4B1B6813F4003F28
:10205000F4D00EE0FFF76AFF054605E0FFF766FFE4
:10206000401B642800F27081744B1B6813F4003F1E
:10207000F4D1236813F0020F50D0704B5B6813F05B
:102080000C0F0AD06D4B5B6803F00C03082B16D1C4
:102090006A4B5B6813F4803F11D1684B1B6813F0E7
:1020A000020F03D02369012B40F05081634A13686B
:1020B00023F0F803616943EAC10313602EE023694A
:1020C000D3B101225E4B1A60FFF730FF054605E0F1
:1020D000FFF72CFF401B022800F23A81574B1B6888
:1020E00013F0020FF4D0554A136823F0F803616926
:1020F00043EAC103136011E00022514B1A60FFF75D
:1021000015FF054605E0FFF711FF401B022800F20E
:1021100021814A4B1B6813F0020FF4D1236813F09E
:10212000080F29D0A369ABB10122464B1A60FFF713
:10213000FDFE054605E0FFF7F9FE401B022800F210
:102140000B813E4B5B6A13F0020FF4D00120FFF7C6
:1021500007FF11E000223B4B1A60FFF7E7FE054640
:1021600005E0FFF7E3FE401B022800F2F780334B47
:102170005B6A13F0020FF4D1236813F0040F00F030
:1021800089802E4BDB6913F0805F0BD12B4BDA6912
:1021900042F08052DA61DB6903F080530193019BC6
:1021A000012500E00025284B1B6813F4807F13D124
:1021B000254A136843F480731360FFF7B7FE0646A1
:1021C00005E0FFF7B3FE801B642800F2C9801E4BB8
:1021D0001B6813F4807FF4D0E368012B05D1174A04
:1021E000136A43F00103136222E063B903F18043F1
:1021F00003F504331A6A22F001021A621A6A22F005
:1022000004021A6214E0052B09D10C4B1A6A42F041
:1022100004021A621A6A42F001021A6208E0074BCD
:102220001A6A22F001021A621A6A22F004021A6281
:10223000E368CBB1FFF77AFE06460FE000100240DC
:10224000000042428004424200700040FFF76EFEF0
:10225000801B41F28833984200F28480494B1B6A0C
:1022600013F0020FF2D00FE0FFF760FE064606E023
:10227000FFF75CFE801B41F28833984274D8414BD3
:102280001B6A13F0020FF3D125B13E4AD36923F044
:102290008053D361E369002B68D03A4A526802F058
:1022A0000C02082A64D0022B37D10022364B1A6068
:1022B000FFF73CFE054604E0FFF738FE401B02280E
:1022C00058D8304B1B6813F0007FF5D1236AB3F563
:1022D000803F06D12B494B6823F40032A368134397
:1022E0004B602848436823F47411236A626A1343DD
:1022F0000B4343600122244B1A60FFF717FE04468C
:1023000004E0FFF713FE001B022835D81D4B1B68A5
:1023100013F0007FF5D0002031E000221A4B1A6044
:10232000FFF704FE044604E0FFF700FE001B02284E
:1023300024D8144B1B6813F0007FF5D100201EE059
:1023400001201CE003201AE0032018E0012016E021
:10235000032014E0032012E0032010E003200EE02D
:1023600003200CE003200AE0032008E0002006E040
:10237000012004E0032002E0032000E0032002B07B
:1023800070BD00BF001002406000424230B486B011
:10239000164D02AC28686968AA68EB680FC42B8ADE
:1023A000ADF80430124B5B6803F00C02082A19D117
:1023B000C3F3834206A90A4412F8100C13F4803FB9
:1023C0000CD00B4B5B68C3F340430B4413F8142C45
:1023D000084B03FB00F0B0FBF2F004E0064B03FBFC
:1023E00000F000E0034806B030BC7047285A0008EF
:1023F0000010024000127A0000093D0070B5654BE4
:102400001B6803F007038B420BD2624A136823F068
:1024100007030B431360136803F00703994240F06E
:10242000A880036813F0020F17D013F0040F04D034
:10243000594A536843F4E0635360036813F0080F8C
:1024400004D0554A536843F460535360524C636858
:1024500023F0F0028368134363600D46044603686B
:1024600013F0010F4DD04268012A05D14A4B1B6879
:1024700013F4003F0DD17EE0022A05D1464B1B68C4
:1024800013F0007F05D178E0434B1B6813F0020F77
:1024900075D041494B6823F0030313434B60FFF7AA
:1024A00045FD06466368012B0ED106E0FFF73EFDB1
:1024B000801B41F28833984263D8374B5B6803F046
:1024C0000C03042BF2D11CE0022B15D106E0FFF720
:1024D0002DFD801B41F28833984254D82E4B5B6807
:1024E00003F00C03082BF2D10BE0FFF71FFD801B5C
:1024F00041F28833984248D8274B5B6813F00C0FA1
:10250000F3D1244B1B6803F007039D420AD2214AF2
:10251000136823F007032B431360136803F00703CA
:102520009D4234D1236813F0040F06D01A494B683A
:1025300023F4E062E36813434B60236813F0080F51
:1025400007D0154A536823F46053216943EAC10355
:102550005360FFF71BFF104B5B68C3F303130F4A75
:10256000D35CD8400E4B18600020FFF79BFC002086
:1025700070BD012070BD012070BD012070BD012023
:1025800070BD032070BD032070BD032070BD01200D
:1025900070BD00BF0020024000100240445A0008F5
:1025A0000800002070B582B00446036813F0010FE4
:1025B0005CD03E4BDB6913F0805F0BD13B4BDA699B
:1025C00042F08052DA61DB6903F080530193019B92
:1025D000012600E00026364B1B6813F4807F12D1E1
:1025E000334A136843F480731360FFF79FFC05467A
:1025F00004E0FFF79BFC401B64284FD82C4B1B6862
:1026000013F4807FF5D0294B1B6A13F4407321D05B
:10261000626802F4407293421CD0244A136A23F485
:102620004070244901250D6000250D60106213F0F3
:10263000010F0FD0FFF77AFC054606E0FFF776FCA6
:10264000401B41F2883398422AD8184B1B6A13F07A
:10265000020FF3D015490B6A23F4407263681343E9
:102660000B621EB1CB6923F08053CB61236813F05A
:10267000020F06D00D494B6823F44042A368134370
:102680004B60236813F0100F0CD008494B6823F4FB
:102690008002E36813434B60002004E0032002E063
:1026A000032000E0002002B070BD00BF0010024017
:1026B0000070004040044242F0B583B0002634462A
:1026C000D5E00122A2400B6813409A4240F0CE8030
:1026D0004D68122D2DD00BD8022D27D003D85DB315
:1026E000012D1ED035E0032D30D0112D1BD030E050
:1026F000614FBD4220D008D8A7F58017BD421BD03E
:1027000007F58037BD4224D116E05C4FBD4213D09F
:1027100007F58037BD420FD0A7F58017BD4218D10D
:102720000AE0CE6815E0CE68043612E0CE680836BE
:102730000FE0CE680C360CE08D684DB1012D02D152
:102740000261082605E04261082602E0002600E05A
:102750000426FF2B01D8864601E000F1040EFF2B72
:1027600001D8A20002E0A4F108029200DEF8007095
:102770000F25954027EA050506FA02F22A43CEF80E
:1027800000204A6812F0805F70D03D4A956945F09C
:1027900001059561926902F001020192019AA70870
:1027A000BD1C384A52F8255004F0030292004FF045
:1027B0000F0E0EFA02FE25EA0E0E334DA8420DD082
:1027C00005F58065A8420BD005F58065A84209D0C3
:1027D00005F58065A84207D1032506E0002504E041
:1027E000012502E0022500E0042505FA02F24EEA86
:1027F00002020237234D45F827204A6812F4803F31
:1028000005D005F580652A681A432A6004E01F4D4B
:102810002A6822EA03022A604A6812F4003F04D0C0
:102820001A4D6A681A436A6004E0184D6A6822EA21
:1028300003026A604A6812F4801F04D0134DAA682C
:102840001A43AA6004E0114DAA6822EA0302AA60B2
:102850004A6812F4001F04D00C4DEA681343EB6081
:1028600004E00A4DEA6822EA0303EB6001340F2C0E
:102870007FF627AF03B0F0BD00002110000031103B
:102880000010024000000140000801400004014027
:102890008368194201D0012070470020704700BFB3
:1028A0000AB101617047090401617047C36859406A
:1028B000C160704770B4C56B066C0124B4406C6095
:1028C000046863604368102B04D103689A6003684E
:1028D000D96003E0036899600368DA6070BC7047F0
:1028E00058B310B403460068164A02441649A1FBC7
:1028F0000212120992001A64144ADA63022283F85F
:102900002120026822F47F5121F030015C689A682E
:102910001443DA6814431A6914435A6914439A69D0
:102920001443DA6922430A430260002098630122BB
:1029300083F8212083F8200001E00120704710BCBB
:10294000704700BFF8FFFDBFCDCCCCCC00000240EB
:1029500038B590F82040012C32D0012480F8204076
:1029600090F82140012C26D10446022084F8210051
:102970000020A0632568286820F001002860204618
:10298000FFF798FFE36A2BB12268136843F00E0348
:10299000136009E02268136823F0040313602268BF
:1029A000136843F00A0313602268136843F00103BD
:1029B0001360002038BD002380F82030022038BD8D
:1029C000022038BD38B5C36B1A6804682568016CED
:1029D00004238B401A4236D015F0040F33D02368FD
:1029E00013F0200F03D1236823F00403236003684E
:1029F000434A934211D01432934210D0143293427E
:102A00000FD0143293420FD0143293420FD01432AD
:102A100093420FD14FF480020EE004220CE04022DA
:102A20000AE04FF4806207E04FF4804204E04FF484
:102A3000802201E04FF08062324B5A60C36A002B63
:102A40005CD0984738BD02238B401A423BD015F02A
:102A5000020F38D0236813F0200F06D1236823F02B
:102A60000A032360012380F821300368244A93423B
:102A700011D01432934210D0143293420FD014323A
:102A800093420FD0143293420FD0143293420FD19D
:102A90004FF400120EE002220CE020220AE04FF474
:102AA000007207E04FF4005204E04FF4003201E0FE
:102AB0004FF00072134B5A60002380F82030836A75
:102AC000E3B1984738BD082303FA01F10A4215D053
:102AD00015F0080F12D0236823F00E032360C16B9A
:102AE000026C012303FA02F24A60836380F821300A
:102AF000002380F82030036B03B1984738BD00BF36
:102B00000800024000000240074AD36823F4E06353
:102B10001B041B0C000200F4E060184340F0BF608F
:102B200040F40030D060704700ED00E030B4164B48
:102B3000DB68C3F30223C3F10704042C28BF042479
:102B40001D1D062D01D9DD1E00E00025012303FA1D
:102B500004F4013C2140A940AB40013B1A400A4328
:102B6000002806DA00F00F001201D2B2074B1A5407
:102B700007E01201D2B200F1604000F5614080F838
:102B8000002330BC704700BF00ED00E014ED00E012
:102B9000420900F01F00012303FA00F0014B43F843
:102BA0002200704700E100E00138B0F1807F0AD2D6
:102BB000064B5860F021064A82F8231000209860E6
:102BC00007221A6070470120704700BF10E000E044
:102BD00000ED00E00F4B1A6842F001021A605968DC
:102BE0000D4A0A405A601A6822F0847222F4803238
:102BF0001A601A6822F480221A605A6822F4FE02CF
:102C00005A604FF41F029A604FF00062034B9A60C3
:102C1000704700BF001002400000FFF800ED00E028
:102C200010B5074C002220212046FFF739FEC820AE
:102C3000FFF782F9012220212046FFF731FE10BD67
:102C4000000C01402DE9F84300AF06460D464FEA5F
:102C50004108B8F5FA7F01D34FF4FA75012210212B
:102C60001748FFF71DFE310AEB1D23F00703ADEBFC
:102C7000030D6C46002303E0E1545A1CA6540233B2
:102C80009D42F9D8B8FBF5F905FB1988B9F1000F99
:102C900008D10AE00A23AAB221460A48FEF7D4FD69
:102CA000013600E000264E45F4D30A231FFA88F2CD
:102CB00021460448FEF7C8FDBD46BDE8F88300BFC5
:102CC000000C0140E801002000B583B002A901F822
:102CD000010D01231A460348FEF7B6FD03B05DF867
:102CE00004FB00BFE8010020354B1B889BB28342E8
:102CF00065D9344B1B889BB28B4260D9F0B585B047
:102D000016460D460446304F002210213846FFF784
:102D1000C7FD2A20FFF7D8FF012210213846FFF710
:102D2000BFFD230A8DF80C30E3B28DF80D30601C26
:102D300000128DF80E0001338DF80F30234C012363
:102D4000042203A92046FEF77FFD00221021384609
:102D5000FFF7A6FD2B20FFF7B7FF01221021384611
:102D6000FFF79EFD2B0A8DF80830EBB28DF8093085
:102D7000691C09128DF80A1001338DF80B300123FC
:102D8000042202A92046FEF75FFD002210213846EA
:102D9000FFF786FD2C20FFF797FF01221021384610
:102DA000FFF77EFD330A8DF804308DF805600123AE
:102DB000022201A92046FEF747FD05B0F0BD70478D
:102DC000500000200C000020000C0140E801002011
:102DD0002DE9F04F89B080460F4600930692561EAB
:102DE0005200C2F1010B01230793059300230193C5
:102DF0005FE0B5B205EB08039BB2BDF8044004EBFD
:102E0000070A1FFA8AFA009A514602931846FFF7FA
:102E10006BFF08EB04039AB2104605EB07091FFA93
:102E200089F9009A49460390FFF75EFFC4EB080357
:102E300099B20B46009A494604931846FFF754FF8F
:102E4000C5EB08091FFA89F9009A51464846FFF771
:102E50004BFF3C1BA4B2DDF800A052462146484679
:102E6000FFF742FF7D1BADB2524629460498FFF79B
:102E70003BFF524629460398FFF736FF524621464C
:102E80000298FFF731FFBBF1000F07DC019B013314
:102E90000193079A1346934402330793BBF1000F43
:102EA00007DD013E059B02330593069AA3EB42031F
:102EB0009B44019B9E429CDA09B0BDE8F08F00BFA5
:102EC0002DE9F04F85B002900E46009390465200D7
:102ED000C2F1010303934FF0000ACDF804A0574656
:102EE00040E0029B9946C8EB03050FE01FFA85FB03
:102EF000BCB2A119009A89B25846FFF7F5FE311B02
:102F0000009A89B25846FFF7EFFE013508EB090336
:102F10009D42EBDD029BDD1B10E01FFA85FB1FFAD3
:102F200088F43119009A89B25846FFF7DDFE311B4B
:102F3000009A89B25846FFF7D7FE013507EB09031F
:102F40009D42EADD0137019A134692440233019310
:102F5000039A02EB4A03002B04DD08F1FF38924488
:102F6000931C0393B845BCDA05B0BDE8F08F00BFF1
:102F700010B50446002210210348FFF791FC2046BB
:102F8000FFF7A2FE10BD00BF000C014010B50446C3
:102F9000012210210348FFF783FC2046FFF794FE2F
:102FA00010BD00BF000C014010B504463620FFF7ED
:102FB000DFFF0120FEF7C0FF032C2ED8DFE804F06E
:102FC000020D18234820FFF7E1FFF022134B1A806F
:102FD0004FF4A072124B1A8010BD2820FFF7D6FFC5
:102FE0004FF4A0720D4B1A80F0220D4B1A8010BDC9
:102FF0008820FFF7CBFFF022084B1A804FF4A07215
:10300000074B1A8010BDE820FFF7C0FF4FF4A072F5
:10301000024B1A80F022024B1A8010BD5000002093
:103020000C000020F8B507460D4616461C462A201F
:10303000FFF79EFF380AFFF7A9FFF8B2FFF7A6FFD8
:10304000300AFFF7A3FFF0B2FFF7A0FF2B20FFF736
:103050008FFF280AFFF79AFFE8B2FFF797FF200AD1
:10306000FFF794FFE0B2FFF791FF2C20FFF780FFFE
:10307000F8BD00BF70B50646094D2A88094C238863
:103080009BB292B200210846FFF7CCFF2B889BB27F
:10309000218889B201FB03F13046FFF7D3FD70BDF3
:1030A000500000200C00002038B51C46184B1B882F
:1030B0009BB283422BD91546164B1B889BB28B4281
:1030C00025D98218013A124B1B889BB29A4204DB25
:1030D0000F4B1D88ADB22D1AADB20A19013A0D4B36
:1030E0001B889BB29A4204DB0A4B1C88A4B2641A68
:1030F000A4B26318013B2A18013A9BB292B2FFF7BF
:1031000091FF05FB04F1BDF81000FFF79BFD38BDF2
:10311000500000200C00002030B583B014461D463E
:10312000131A002B01DB002200E001226B1A002B96
:1031300001DB002300E0012312B9241AA2B202E04D
:10314000001B82B2204613B96D1AABB202E0491BD4
:103150008BB22946BDF818400094FFF7A5FF03B0D5
:1031600030BD00BF2DE9F04385B090469946BDF8CB
:1031700030601F2801D92038C0B200230BE000EBDB
:1031800040046200224C2244D45C04AA1A4402F88F
:10319000084C0133DBB2052BF1D98FB2F3009BB29F
:1031A00006EB46014A0092B2BDF834100091414648
:1031B0003846FFF779FF002525E004AB2B4413F8D0
:1031C000083C234113F0010F15D0012E07D108EB65
:1031D00004014A4689B27819FFF786FD0BE004FB2B
:1031E000068105FB0670CDF800903346324689B261
:1031F00080B2FFF759FF0134E4B200E00024072C4D
:10320000DBD90135EDB2052DF8D905B0BDE8F08365
:10321000545A00082DE9F04383B00446894690468D
:103220001F46BDF82850BDF82C600DE00134019612
:1032300000953B4642464946FFF794FF05EB4503A0
:10324000590049445FFA81F920780028EED103B093
:10325000BDE8F08338B51D46104B1B889BB28342F6
:103260001BD914460E4B1B889BB28B4215D9821872
:10327000013A0A4B1B889BB29A4204DB074B1C881D
:10328000A4B2241AA4B22218013A0B4692B2FFF754
:10329000C9FE21462846FFF7D5FC38BD5000002066
:1032A0000C00002038B51D46104B1B889BB2834292
:1032B0001BD914460E4B1B889BB28B4215D98A181A
:1032C000013A0B4B1B889BB29A4204DB084B1C88CB
:1032D000A4B2641AA4B26318013B9BB20246FFF782
:1032E000A1FE21462846FFF7ADFC38BD5000002066
:1032F0000C0000202DE9F04706460D4691469A46FF
:10330000BDF82070101AFDF77BFC0021FDF71AFDB7
:1033100008B9002400E00124C5EB0A00FDF770FCA9
:103320000021FDF70FFD10B94FF0000801E04FF04C
:1033300001081CB9C6EB0904A4B202E0C9EB0604FB
:10334000A4B23B46224629463046FFF783FF3B4660
:10335000224651463046FFF77DFFB8F1000F04D1F9
:10336000C5EB0A081FFA88F803E0CAEB05081FFA44
:1033700088F83B46424629463046FFF793FF3B46D6
:10338000424629464846FFF78DFF14B9B8F1000FB1
:1033900004D03A4651464846FFF7A6FCBDE8F08700
:1033A00070B5FEB00446012934D10120FFF7FCFDC1
:1033B000F0234FF4A07200210846FFF733FE684D5A
:1033C000012210212846FFF76BFA00220821284627
:1033D000FFF766FA0026354613E0EA18A15C01AA59
:1033E000D154013300E00023B3F5FA7FF5D30A236B
:1033F0004FF4FA7201A95B48FEF726FA05F5FA7553
:103400000136B6F5997FEED9012208215448FFF71D
:1034100047FAA2E0032934D10320FFF7C5FDF023CA
:103420004FF4A07200210846FFF7FCFD4C4D01222D
:1034300010212846FFF734FA002208212846FFF71A
:103440002FFA0026354613E0EA18A15C01AAD154F0
:10345000013300E00023B3F5FA7FF5D30A234FF4DC
:10346000FA7201A93F48FEF7EFF905F5FA75013642
:10347000B6F5997FEED9012208213948FFF710FAF5
:103480006BE0022934D10220FFF78EFD4FF4A073C8
:10349000F02200210846FFF7C5FD314D0122102121
:1034A0002846FFF7FDF9002208212846FFF7F8F922
:1034B0000026354613E0EA18A15C01AAD154013375
:1034C00000E00023B3F5FA7FF5D30A234FF4FA7234
:1034D00001A92448FEF7B8F905F5FA750136B6F5E5
:1034E000997FEED9012208211D48FFF7D9F934E070
:1034F00099BB0020FFF758FD4FF4A073F022002184
:103500000846FFF78FFD164D012210212846FFF7D0
:10351000C7F9002208212846FFF7C2F900263546E0
:1035200013E0EA18A15C01AAD154013300E00023A2
:10353000B3F5FA7FF5D30A234FF4FA7201A90948CB
:10354000FEF782F905F5FA750136B6F5997FEED9E1
:10355000012208210248FFF7A3F97EB070BD00BF29
:10356000000C0140E801002010B5064C012220218A
:103570002046FFF795F9012208212046FFF790F930
:1035800010BD00BF000C014008B5FFF7EDFFFFF7CD
:1035900047FB0120FFF7ECFC4FF47A70FEF7CCFC00
:1035A000CB20FFF7E5FC3920FFF7F0FC2C20FFF7DC
:1035B000EDFC0020FFF7EAFC3420FFF7E7FC0220D7
:1035C000FFF7E4FCCF20FFF7D3FC0020FFF7DEFC81
:1035D000C120FFF7DBFC3020FFF7D8FCE820FFF725
:1035E000C7FC8520FFF7D2FC0020FFF7CFFC782036
:1035F000FFF7CCFCEA20FFF7BBFC0020FFF7C6FC7E
:103600000020FFF7C3FCED20FFF7B2FC6420FFF7BA
:10361000BDFC0320FFF7BAFC1220FFF7B7FC8120A6
:10362000FFF7B4FCF720FFF7A3FC2020FFF7AEFC68
:10363000C020FFF79DFC2320FFF7A8FCC120FFF767
:1036400097FC1020FFF7A2FCC520FFF791FC3E205D
:10365000FFF79CFC2820FFF799FCC720FFF788FCA8
:103660008620FFF793FC3620FFF782FC4820FFF707
:103670008DFC3A20FFF77CFC5520FFF787FCB1203A
:10368000FFF776FC0020FFF781FC1820FFF77EFC97
:10369000B620FFF76DFC0820FFF778FC8220FFF7CB
:1036A00075FC2720FFF772FCF220FFF761FC002079
:1036B000FFF76CFC2620FFF75BFC0120FFF766FCA0
:1036C000E020FFF755FC0F20FFF760FC3120FFF7EB
:1036D0005DFC2B20FFF75AFC0C20FFF757FC0E2057
:1036E000FFF754FC0820FFF751FC4E20FFF74EFC7B
:1036F000F120FFF74BFC3720FFF748FC0720FFF7CE
:1037000045FC1020FFF742FC0320FFF73FFC0E2092
:10371000FFF73CFC0920FFF739FC0020FFF736FCDF
:10372000E120FFF725FC0020FFF730FC0E20FFF71B
:103730002DFC1420FFF72AFC0320FFF727FC1120A3
:10374000FFF724FC0720FFF721FC3120FFF71EFCC8
:10375000C120FFF71BFC4820FFF718FC0820FFF7EB
:1037600015FC0F20FFF712FC0C20FFF70FFC312097
:10377000FFF70CFC3620FFF709FC0F20FFF706FCD3
:103780001120FFF7F5FB7820FEF7D6FB2920FFF785
:10379000EFFB0020FFF708FC4FF6FF70FFF76AFC15
:1037A00008BD00BF70B504460D4616462C22002108
:1037B00001F0FEFF4FF00003082262F30713A3702D
:1037C000A560A847237960F301032371E37866F3CA
:1037D0008713E37070BD00BF023100EB81004260CF
:1037E000704700BF10B5044683689847E37813F02C
:1037F000070302D0228801322280227902F00302DC
:10380000904213D0E178C1F3C202013202F0070204
:1038100062F3C501E170022A0CDD227960F3010236
:103820002271CAB26FF3C502E27003E0E2786FF36F
:10383000C502E270052B00F2E480DFE813F0060019
:10384000270052009900E200B900237903F0030336
:10385000E278B3EB921F13D1A3786FF30713A37031
:10386000E3680BB12046984700232380A378012208
:1038700062F30303A370E37862F30203E37010BD05
:10388000A378082262F30713A37010BD237903F015
:103890000303E278B3EB921F10D0A378012262F306
:1038A0000713A37023690BB1204698470023238098
:1038B000E378022262F30203E37010BD2388322B07
:1038C00040F29F80A378052262F30713A370236A56
:1038D0000BB120469847E378052262F30203E370B8
:1038E00010BD237903F00303E278B3EB921F1DD1DF
:1038F000A3786FF30713A370E3680BB120469847D2
:10390000A37803F00F02013262F30303022262F391
:103910000713A37063690BB12046984700232380E7
:10392000E378032262F30203E37010BD2388062BC1
:1039300067D9A37803F00F03012B09D1A3780322E1
:1039400062F30713A370A3696BB1204698470AE09E
:10395000022B08D1A378042262F30713A370E36952
:103960000BB120469847E3786FF30203E37010BD74
:10397000237903F00303E278B3EB921F41D0A378DD
:10398000012262F30713A37023690BB12046984705
:103990002388052B07D800232380E378022262F3D3
:1039A0000203E37010BDE3786FF30203E37010BD10
:1039B000237903F00303E278B3EB921F14D1A378C9
:1039C000062262F30713A37022880E4BA3FB021397
:1039D0005B0903EB8303D900521A92B28AB9636A76
:1039E0007BB12046984710BDA378012262F30713EC
:1039F000A37023690BB120469847E3786FF3020365
:103A0000E37010BDCDCCCCCC084B1A68134602E055
:103A1000834207D09B6A002BFAD18262034B186065
:103A2000002070474FF0FF30704700BF6801002052
:103A300010B5054B1C6803E02046FFF7D3FEA46ACF
:103A4000002CF9D110BD00BF68010020064B9B88F7
:103A500040F6D862934203D8C72B03D801207047A1
:103A6000022070470020704784020020064BDB884C
:103A700040F6D862934203D8C72B03D80120704781
:103A8000022070470020704784020020064B1B88EC
:103A900040F6D862934203D8C72B03D80120704761
:103AA000022070470020704784020020064B5B888C
:103AB00040F6D862934203D8C72B03D80120704741
:103AC00002207047002070478402002008B50A4B8E
:103AD0001B681B78012B07D013B1022B08D008BD3F
:103AE000054B5B6E984708BD034BDB6D984708BDDF
:103AF000014B9B6E984708BD6C00002008B50A4B2F
:103B00001B681B78012B07D013B1022B08D008BD0E
:103B1000054B5B6E984708BD034B1B6E984708BD6D
:103B2000014B9B6E984708BD6C00002008B5044B04
:103B30001B681B78012B02D1014B1B6B984708BDFA
:103B40006C00002008B5044B1B681B78012B02D1C8
:103B5000014BDB6A984708BD6C00002008B50A4B92
:103B60001B681B78012B07D013B1022B08D008BDAE
:103B7000054B1B6D984708BD034B9B6B984708BDD1
:103B8000014B9B6D984708BD6C00002008B50A4B9F
:103B90001B681B78012B07D013B1022B08D008BD7E
:103BA000054BDB6C984708BD034B5B6B984708BD22
:103BB000014B5B6D984708BD6C00002008B5044BB5
:103BC0001B681B78012B02D1014B1B6C984708BD69
:103BD0006C00002008B5044B1B681B78012B02D138
:103BE000014BDB6B984708BD6C00002008B50A4B01
:103BF0001B681B78012B07D013B1022B08D008BD1E
:103C0000054B1B6D984708BD034B9B6C984708BD3F
:103C1000014B9B6D984708BD6C00002008B50A4B0E
:103C20001B681B78012B07D013B1022B08D008BDED
:103C3000054BDB6C984708BD034B5B6C984708BD90
:103C4000014B5B6D984708BD6C00002008B5202132
:103C50000148FEF71DFE08BD0008014008B510210F
:103C60000148FEF715FE08BD000801402DE9F84F98
:103C7000042263496348FDF739FC6420FEF75CF9D0
:103C8000002261496148FFF78DFD002260496148CB
:103C9000FFF788FD604D614E012229463046FFF74F
:103CA00081FD5F4C012221465E48FFF77BFDDFF876
:103CB000B4B1022229465846FFF774FDDFF8A8A1E7
:103CC000022221465046FFF76DFD574CDFF89C91CC
:103CD000012221464846FFF765FD544FDFF89081E9
:103CE000012239464046FFF75DFD514D0222214633
:103CF0002846FFF757FD4F4C022239462046FFF772
:103D000051FD4D4A03214148FFF766FD4B4A03210F
:103D10004048FFF761FD4A4A03213046FFF75CFD4A
:103D2000484A03213F48FFF757FD474A03215846B9
:103D3000FFF752FD454A03215046FFF74DFD444A27
:103D400003214846FFF748FD424A03214046FFF75A
:103D500043FD414A03212846FFF73EFD3F4F3A46C7
:103D600003212046FFF738FD354A06213046FFF78C
:103D700033FD344A06212B48FFF72EFD324A062137
:103D80005846FFF729FD314A06215046FFF724FD2A
:103D90002F4A06214846FFF71FFD2E4A06214046BE
:103DA000FFF71AFD2C4A06212846FFF715FD3A4673
:103DB00006212046FFF710FD1448FFF725FE1548A1
:103DC000FFF722FE3046FFF71FFE1648FFF71CFEE6
:103DD0005846FFF719FE5046FFF716FE4846FFF714
:103DE00013FE4046FFF710FE2846FFF70DFE204663
:103DF000FFF70AFE1A48FDF77BFEBDE8F88F00BF0B
:103E000084020020740100204D3C0008680300205B
:103E10005D3C0008B80200204D3A0008EC03002089
:103E20006D3A0008180400208D3A0008AD3A0008E9
:103E30003C030020C0030020CD3A0008FD3A0008F2
:103E40002D3B00085D3B0008453B00088D3B00080A
:103E5000BD3B0008ED3B0008D53B00081D3C0008B9
:103E60004002002094030020100300208C02002058
:103E7000E402002008B5034B834201D1FFF7D8FDCF
:103E800008BD00BF4002002010B5044CA36898474D
:103E9000E3684FF6E070984710BD00BF10000020A7
:103EA0002DE9F04F8BB0814605880135C5EB05152E
:103EB000ADB2ADF824504488C4EB04143734A3B237
:103EC0000393ADF826300B78012B02D04FF6FF7626
:103ED00000E00026764B1888854204D15B88039A5F
:103EE0009A4200F00181724B5988B1F58C7F80F0C5
:103EF000E380DFF8C081D8F810300631063047F68D
:103F0000E03289B280B29847D8F81030684F3888CC
:103F100079880631053047F6E03289B280B2984799
:103F2000D8F81030388879880631043047F6E03206
:103F300089B280B29847D8F810303888798805312E
:103F4000063047F6E03289B280B29847D8F8103090
:103F5000388879880431063047F6E03289B280B279
:103F60009847D8F81030388879880631063847F6EF
:103F7000E03289B280B29847D8F810303888798812
:103F80000631053847F6E03289B280B29847D8F852
:103F90001030388879880631043847F6E03289B223
:103FA00080B29847D8F810303888798805310638BB
:103FB00047F6E03289B280B29847D8F81030388896
:103FC00079880431063847F6E03289B280B29847E2
:103FD000D8F81030388879880639063047F6E0324C
:103FE00089B280B29847D8F8103038887988063975
:103FF000053047F6E03289B280B29847D8F81030E1
:10400000388879880639043047F6E03289B280B2C0
:104010009847D8F81030388879880539063047F63F
:10402000E03289B280B29847D8F810303888798861
:104030000439063047F6E03289B280B29847D8F8A2
:104040001030388879880639063847F6E03289B268
:1040500080B29847D8F81030388879880639053802
:1040600047F6E03289B280B29847D8F810303888E5
:1040700079880639043847F6E03289B280B2984729
:10408000D8F81030388879880539063847F6E03294
:1040900089B280B29847D8F81030388879880439C6
:1040A000063847F6E03289B280B298471CE000BF7C
:1040B0006400002010000020994F4FF6E078CDF802
:1040C00000804FF49F73EE224FF48C7109203C6BFB
:1040D000A047BF6BCDF8048003230093002340F278
:1040E0001D120E218F48B847039BB3F58C7F80F0DB
:1040F00094808B4F3B6905F106091FFA89F9039AF1
:1041000002F1060A1FFA8AFA324651464846984793
:104110003B696A1D92B21046324651460490984758
:104120003B692A1D91B20C46324651460594204601
:1041300098473B69039C04F1050B1FFA8BFB324641
:104140005946484698473B690394221D91B232462E
:104150000691484698473B69A5F106081FFA88F87A
:1041600032465146404698473B696A1F92B2144610
:10417000324651460794204698473B69043DADB20C
:1041800032465146284698473B6932465946404692
:1041900098473B6932460699404698473B69039CDD
:1041A000A4F1060A1FFA8AFA324651464846984751
:1041B0003B6932465146049898473B69324651461E
:1041C000059898473B69039CA4F1050B1FFA8BFBEC
:1041D00032465946484698473B69043CA4B23246A9
:1041E0002146484698473B693246514640469847E3
:1041F0003B6932465146079898473B6932465146DB
:10420000284698473B6932465946404698473B699D
:10421000324621464046984777E0B9F8003013F01F
:10422000010F39D13E4C256A002305224FF49071CD
:104230000A20A847256A002305224FF490717A20AE
:10424000A847256A002305224FF498710A20A84741
:10425000256A002305224FF498717A20A847E56962
:104260000023052240F21F110A20A847E569002318
:10427000052240F21F117620A847E5690023052298
:1042800040F235110A20A847E4690023052240F2D4
:1042900035117620A04738E0214C256A00230522FD
:1042A0004FF490719A20A847256A002305224FF405
:1042B0009071E620A847256A002305224FF49871E3
:1042C0009A20A847256A002305224FF49871E6201A
:1042D000A847E5690023052240F21F119A20A8474C
:1042E000E5690023052240F21F11E220A847E56995
:1042F0000023052240F235119A20A847E4690023E3
:10430000052240F23511E220A047BDF82420064BDB
:104310001A80BDF826205A800BB0BDE8F08F00BF90
:1043200010000020945C00086400002030B583B0C9
:104330000C4B9D6AC3B20133C3EB03139CB2C0F3B1
:104340000721C1EB0111373189B2C0F307400128C1
:1043500001D1002301E04FF6FF7305222046A84754
:1043600003B030BD10000020F0B583B0054690F8D2
:10437000A322334B1B789A4240D2324B9C6947F6BA
:10438000E0330093F0231A4628210020A0470024A0
:1043900013E02C4FFE69C4EB041137310023D22205
:1043A00089B20F20B0473E6A0134C4EB04100023E9
:1043B000D222372180B2B047E4B20E2CE9D9214C89
:1043C000A66A0023022264213C20B047A66A00238B
:1043D00002226421B420B047A66A00230222DC2115
:1043E0003C20B047A66A00230222A0217820B047D3
:1043F000A46A00230222DC21B420A04795F8A3225E
:104400000F4B1B789A420FD113E004EB4403EA18D8
:10441000EB5C507843EA0023907843EA0040FFF7D2
:1044200085FF0134E4B200E0002495F8A3329C42F9
:10443000EBD395F8A322024B1A7003B0F0BD00BF76
:104440005A0000201000002030B583B004461B4BFA
:104450001B7883422ED01A4B9D6B08B9194800E097
:1044600019484FF6E07301930423009300235A2266
:104470001021A847124B9D6B012C01D1134800E07D
:1044800013484FF6E0730193042300930023822224
:104490001021A8470A4B9D6B022C01D10D4800E06A
:1044A0000D484FF6E0730193042300930023AA22E2
:1044B0001021A847014B1C7003B030BD58000020EC
:1044C00010000020A45C0008B05C0008B85C000884
:1044D000C45C0008CC5C0008D85C000830B583B030
:1044E0000446244B1B78834240D001290FD1224B34
:1044F0009D6B08B9214800E021484FF6E073019315
:1045000003230093002378221946A8470EE01A4B94
:104510009D6B08B91B4800E01B484FF6E073019300
:1045200003230093002378221946A847124B9D6B62
:10453000012C01D1154800E015484FF6E0730193B6
:1045400003230093002396221946A8470A4B9D6B2C
:10455000022C01D10F4800E00F484FF6E0730193A1
:10456000032300930023B4221946A847014B1C7073
:1045700003B030BD6800002010000020E05C00089F
:10458000F05C0008005D0008105D0008205D000878
:10459000305D0008405D0008505D00082DE9F043E3
:1045A00083B00D46144602786B4909788A4203D0DD
:1045B00069490A70012100E00021012A0FD0022A76
:1045C0003CD039B1654BDB684FF6E0709847032269
:1045D000634B1A700D9B1878FFF736FFB8E029B3CC
:1045E000604B0F221A8037225A80FF225E4B1A70CE
:1045F0005A4EF3684FF6E07098474FF6E079CDF8E1
:1046000004904FF00308CDF80080002305224021DC
:104610005648B76BB847B66BCDF80490CDF800801C
:10462000002340F21D120E215148B0472846FFF7E3
:104630009BFE0A992046FFF733FC89E0002900F031
:10464000818003214B4A11701B78022B32D08B42A0
:104650005FD0012B6AD10B9B1B78012B10D013B1BB
:10466000022B1AD06EE03D4B9C6B4FF6E07301932A
:10467000032300930023502219463F48A04761E0DE
:10468000364B9C6B4FF6E07301930323009300239A
:10469000502219463948A04754E0304B9C6B4FF6E6
:1046A000E0730193032300930023502219463448FA
:1046B000A04747E00B9B1B78012B10D013B1022BB6
:1046C0001AD03FE0254B9C6B4FF6E0730193032318
:1046D00000930023502219462A48A04732E01F4B7E
:1046E0009C6B4FF6E0730193032300930023502249
:1046F00019462348A04725E0184B9C6B4FF6E07302
:104700000193032300930023502219461B48A0471E
:1047100018E0124B9C6B4FF6E07301930323009358
:104720000023502219461848A0470BE00B4B9C6B06
:104730004FF6E073019303230093002350221946A0
:104740001248A0470C9B19780E9B1878FFF7C6FEFD
:1047500003B0BDE8F08300BF590000201000002026
:1047600058000020640000205A000020605D00080E
:10477000945C000868000020685D0008745D000813
:10478000805D00088C5D0008985D0008A45D00084D
:104790000123044A1370044A1178044A1170044A30
:1047A000137070476C01002072010020700100201E
:1047B0006D0100200D4B1B78012B02D00C4A1278A2
:1047C0009AB1012B03D10A4B1B78012B0DD0094B59
:1047D0001B880D2B02D80133064A1380054B5B88DA
:1047E0000E2B02D90722034B1A807047D8000020F5
:1047F00070010020DC0000200D4B1B78012B02D043
:104800000C4A127892B1012B03D10A4B1B78012B71
:104810000CD0094B1B8813B1013B074A1380064B90
:104820005B880E2B02D90622034B1A80704700BF0B
:10483000D800002070010020DC000020094B1B780C
:10484000012B02D0084A12785AB1012B03D1064B32
:104850001B78012B05D0054B5B8813B1013B034A44
:1048600053807047D800002070010020DC00002039
:104870000A4B1B78012B02D0094A127862B1012B36
:1048800003D1074B1B78012B06D0064B5B880E2B00
:1048900002D80133034A5380704700BFD80000207C
:1048A00070010020DC0000200C4B1B7813B10C4A77
:1048B000127892B11BB90A4B1B78022B0DD0094B11
:1048C0001B880D2B02D80133064A1380054B5B88E9
:1048D0000E2B02D90722034B1A807047D800002004
:1048E00070010020DC0000200C4B1B7813B10C4A37
:1048F00012788AB11BB90A4B1B78022B0CD0094BDA
:104900001B8813B1013B074A1380064B5B880E2BB3
:1049100002D90622034B1A80704700BFD80000203E
:1049200070010020DC000020084B1B7813B1084AFE
:10493000127852B11BB9064B1B78022B05D0054BE0
:104940005B8813B1013B034A53807047D8000020B5
:1049500070010020DC000020094B1B7813B1094ACC
:1049600012785AB11BB9074B1B78022B06D0064BA5
:104970005B880E2B02D80133034A5380704700BF77
:10498000D800002070010020DC000020034B1B78C1
:1049900013B1013B014A1370704700BF7201002040
:1049A000034B1B78012B02D80133014A1370704767
:1049B00072010020034B1B7813B1013B014A1370B5
:1049C000704700BF6E010020034B1B78012B02D8FB
:1049D0000133014A137070476E01002008B5E122CF
:1049E00000210E4800F0E4FE00230D4A82F8A332B5
:1049F0000C4A13700C4A13700C4A13700C4A137053
:104A000001210C4A11700C4A13700C4A13700C4AA5
:104A10000721518011800B4A137008BD4404002007
:104A200028050020720100206E0100207001002086
:104A30006D010020D80000206C01002071010020D1
:104A4000DC0000206F01002010B50F4B1C780F4BCD
:104A50001B78012B07D013B1022B0ED010BD012201
:104A60000B4B1A7010BDFFF7B9FF0123084A1370F2
:104A7000054A1470074A137010BDFFF7AFFF0022FC
:104A8000034B1A7010BD00BF700100206E010020A2
:104A90006C0100206D0100200A4B93F8A332E02B3B
:104AA0000CD870B4074C03EB4306A519A0556970E8
:104AB000AA70013384F8A332002001E0012070477E
:104AC00070BC704728050020114B93F8A332D3B176
:104AD000013BDBB20E4A82F8A332B0B1114603EBC0
:104AE0004303D35C037092F8A32202EB42020A4410
:104AF0005378437091F8A33203EB43030B449B7844
:104B0000837000207047022070470020704700BF6C
:104B100028050020F0B50025AEE028461C46C5EB70
:104B200005125E490A44D25C002A00F09C80A91E4E
:104B3000C9B20A2954D8012B52D90C2B50D8A91E1E
:104B40009F1EC1EB0116DFF854E17644F65DB242D8
:104B50001FD16E1E03F1FF3EC6EB0616DFF83CC107
:104B6000664416F80E60B24213D1AE1C03F1020E79
:104B7000C6EB0616664416F80E60B24209D16E1CEA
:104B800003F1010EC6EB0616664416F80E60B2423B
:104B900022D0461C04F1FF3EC6EB0616DFF8FCC02F
:104BA000664416F80E60B2421AD1861CC6EB061691
:104BB000E6466644F65DB24212D1461E671CC6EB5D
:104BC00006166644F65DB2420AD1A61CC1EB01117D
:104BD0006144895D8A4203D1012A56D10120F0BD8A
:104BE0000A2D20D8411CC1EB01112C4E3144095D26
:104BF0008A4218D1811CC1EB01113144095D8A42FE
:104C000011D1C11CC1EB01113144095D8A420AD1A5
:104C1000011DC1EB01113144095D8A4203D1012A12
:104C200035D10120F0BD0A2B1DD8611CC0EB001648
:104C30001A4F3E44715C8A4215D1A11CC0EB00168C
:104C40003E44715C8A420ED1E11CC0EB00163E442A
:104C5000715C8A4207D10434315D8A4203D1012A52
:104C600017D10120F0BD0133DBB200E000230E2B91
:104C70007FF653AF0135EDB20E2DF7D9084B93F8FF
:104C8000A332E12B07D10320F0BD0220F0BD0220AA
:104C9000F0BD0220F0BD0020F0BD00BF44040020A4
:104CA0002805002038B504460D460D4B1A78FFF74D
:104CB000F3FE08B1FCF76EF8094B1B78012B01D10C
:104CC000012100E00221C4EB0414064A144461559A
:104CD00013F1FF3318BF0123014A137038BD00BF21
:104CE000D800002044040020134B93F8A3328342E1
:104CF00020D310B582B017E001A8FFF7E5FE08B198
:104D0000FCF748F89DF804309DF80520C3EB031329
:104D10000A490B4400219954094A137813F1FF33CF
:104D200018BF012313702046431EDCB20028E3D1D4
:104D300002B010BD704700BF2805002044040020C9
:104D4000D800002008B5144B1B78012B03D0134B5F
:104D50001B78012B1FD0124B59880E290BD91B88A9
:104D600013F0010F03D10220FFF7BEFF08BD02229E
:104D70000C4B1A7008BD0A4B1888C0EB00130A4A86
:104D800013445B5C3BB9094B1B78012B03D0C9B2C0
:104D9000C0B2FFF787FF08BDD80000206D010020DA
:104DA000DC0000206C010020440400207001002081
:104DB00008B5144B1B781BB1134B1B78012B1FD06C
:104DC000124B59880E290BD91B8813F0010F03D100
:104DD0000220FFF789FF08BD02220D4B1A7008BDA3
:104DE0000A4B1888C0EB00130A4A13445B5C3BB9BA
:104DF000094B1B78022B03D0C9B2C0B2FFF752FF98
:104E000008BD00BFD80000206D010020DC0000209C
:104E10006C010020440400207001002084B010B414
:104E200001AC84E80F009DF806009DF81A104318A5
:104E3000DBB29DF804409DF818202244032B34D99E
:104E40009DF80540A04201D0002000E001209DF81F
:104E50001930994201D10130C0B22344032B26D826
:104E6000DFE803F00212191F032A0AD8DFE802F074
:104E70000221040600202EE0C8202CE04FF4C87068
:104E800029E04FF4FA6026E0A8B9022A15D017DD10
:104E900041F288301FE0B0B9022A17DD41F28830B4
:104EA00019E0B0B947F2305015E0052013E00B4887
:104EB00011E064200FE064200DE04FF47A600AE016
:104EC0004FF47A7007E04FF47A7004E04FF47A60A0
:104ED00001E041F2883010BC04B0704720A1070007
:104EE00084B010B401AC84E80F009DF807209DF851
:104EF0001B301A449DF809009DF81D104318DBB2C1
:104F0000032B34D99DF80840A04201D0002000E0D6
:104F100001209DF81C30994201D10130C0B22344D8
:104F2000032B26D8DFE803F00212191F032A0AD840
:104F3000DFE802F00221040600202EE0C8202CE069
:104F40004FF4C87029E04FF4FA6026E0A8B9022AAD
:104F500015D017DD4FF47A601FE0B0B9022A17DDD3
:104F60004FF47A6019E0B0B945F2082015E0052049
:104F700013E00B4811E064200FE064200DE040F6E0
:104F8000B8300AE04FF47A7007E04FF47A7004E02A
:104F900040F6B83001E041F2883010BC04B07047F0
:104FA000A086010070B41C7B012C01D1012500E01A
:104FB0000225012C01D1022400E0012442B1C0EB02
:104FC0000012264E3244525C12B9DA7A02B99A7251
:104FD000C0EB0012214E3244525C954202D10022B5
:104FE0005A7207E0944202D100221A7202E00022B3
:104FF0009A71DA711A7A9AB19A7801329A70C0EB82
:105000000012164E3244525C954204D19A7A12B183
:105010001A7801321A709A7912B15A7801325A709C
:105020005A7A9AB15A7901325A71C0EB00120B4D7B
:105030002A44525C944204D19A7A12B1DA7801324D
:10504000DA70DA7912B11A7901321A71C0EB0010F4
:10505000024A1044425CDA7270BC7047440400207B
:10506000F0B587B005460C4616469DF83000002284
:105070008DF804208DF805208DF806208DF8072086
:105080008DF808208DF8092001218DF80A108DF87F
:105090000B108DF80C108DF80D108DF80E108DF88A
:1050A0000F208DF810305B1A18BF01238DF81130D6
:1050B0008DF812008DF813408DF81460072800F267
:1050C000CC80DFE800F004223854697E9AAF013CBE
:1050D00060B2013E71B200220EE0C4B2CEB2D7B2CD
:1050E00001AB3A4631462046FFF75CFF601E40B2F6
:1050F000711E49B27A1C52B20028C0F2AE8000295B
:10510000C0F2AB80032AE8DDA7E0013E71B20022C5
:105110000BE0CEB2D7B201AB3A4631462046FFF79C
:1051200041FF711E49B27A1C52B20029C0F295802B
:10513000032AEEDD91E0013460B2013E71B200223B
:105140000EE0C4B2CEB2D7B201AB3A4631462046E9
:10515000FFF728FF601C40B2711E49B27A1C52B2A0
:105160000E287ADC002978DB032AEADD75E0013CB1
:1051700060B200220BE0C4B2D7B201AB3A4631466E
:105180002046FFF70FFF601E40B27A1C52B2002883
:1051900063DB032AEFDD60E0013460B200220BE044
:1051A000C4B2D7B201AB3A4631462046FFF7FAFE09
:1051B000601C40B27A1C52B20E284EDC032AEFDD8E
:1051C0004BE0013C60B2013671B200220EE0C4B285
:1051D000CEB2D7B201AB3A4631462046FFF7E2FEE7
:1051E000601E40B2711C49B27A1C52B2002834DBF6
:1051F0000E2932DC032AEADD2FE0013671B20022EB
:105200000BE0CEB2D7B201AB3A4631462046FFF7AB
:10521000C9FE711C49B27A1C52B20E291DDC032A48
:10522000EFDD1AE0013460B2013671B200220EE007
:10523000C4B2CEB2D7B201AB3A4631462046FFF7F0
:10524000B1FE601C40B2711C49B27A1C52B20E28E9
:1052500003DC0E2901DC032AEADD01AC0FCC286057
:105260006960AA60EB6023782B74284607B0F0BD14
:1052700084B0F0B587B00CAC84E80F0001AC11AD80
:105280000FCD0FC42B6823709DF840608DF800602F
:105290000CAB0FCBFFF7C2FD074601AC11AD0FCD34
:1052A0000FC42B6823708DF800600CAB0FCBFFF799
:1052B00017FE384407B0BDE8F04004B0704700BFA7
:1052C00084B0F0B587B00CAC84E80F0001AC11AD30
:1052D0000FCD0FC42B6823709DF840608DF80060DF
:1052E0000CAB0FCBFFF79AFD074601AC11AD0FCD0C
:1052F0000FC42B6823708DF800600CAB0FCBFFF749
:10530000EFFD384407B0BDE8F04004B0704700BF7F
:1053100084B0F0B587B00CAC84E80F0001AC11ADDF
:105320000FCD0FC42B6823709DF840608DF800608E
:105330000CAB0FCBFFF772FD074601AC11AD0FCDE3
:105340000FC42B6823708DF800600CAB0FCBFFF7F8
:10535000C7FD384407B0BDE8F04004B0704700BF57
:1053600084B0F0B587B00CAC84E80F0001AC11AD8F
:105370000FCD0FC42B6823709DF840608DF800603E
:105380000CAB0FCBFFF74AFD074601AC11AD0FCDBB
:105390000FC42B6823708DF800600CAB0FCBFFF7A8
:1053A0009FFD384407B0BDE8F04004B0704700BF2F
:1053B00084B070B586B00AAC84E80F0001AC1EADB5
:1053C0000FCD0FC42B6823709DF874308DF800301A
:1053D00019AB0FCBFFF74CFF064601AC2DAD0FCD3F
:1053E0000FC42B6823709DF838308DF800300AAB5D
:1053F0000FCBFFF765FF064401AC28AD0FCD0FC4FE
:105400002B6823709DF84C308DF800300FAB0FCB1C
:10541000FFF77EFF064401AC23AD0FCD0FC42B6810
:1054200023709DF860308DF8003014AB0FCBFFF780
:1054300097FF304406B0BDE8704004B0704700BF2D
:105440002DE9F047CCB082460E4615461C4647AFC4
:10545000002000903846FFF703FE01230093234607
:105460002A46314642A8FFF7FBFD0223009323465C
:105470002A4631463DA8FFF7F3FD03230093234658
:105480002A46314638A8FFF7EBFD04230093234654
:105490002A46314633A8FFF7E3FD05230093234650
:1054A0002A4631462EA8FFF7DBFD0623009323464C
:1054B0002A46314629A8FFF7D3FD07230093234648
:1054C0002A46314624A8FFF7CBFDF41FEB1F03FB50
:1054D00003F304FB04342046FAF79AFF00F070F956
:1054E00002460B4638A1D1E90001FAF743FE00223B
:1054F000374BFAF7F3FF80468946364B1868364B30
:10550000A3FB00239B0803EB8303C01AFAF770FF89
:1055100042464B46FAF730FEFBF790FA80460DF113
:105520007C0E24AC0FCCAEE80F0023688EF8003060
:105530000DF1680E29AC0FCCAEE80F0023688EF891
:1055400000300DF1540E2EAC0FCCAEE80F002368E6
:105550008EF800300DF1400E33AC0FCCAEE80F00EA
:1055600023688EF800300DF12C0E38AC0FCCAEE86D
:105570000F0023688EF800300DF1180E3DAC0FCCF3
:10558000AEE80F0023688EF800300DF1040E42AC37
:105590000FCCAEE80F0023688EF800309DF82C3158
:1055A0008DF8003097E80F00FFF702FF4044CAF87B
:1055B00004008AF800608AF8015050464CB0BDE8FB
:1055C000F08700BFAFF30080068195438BCC23406A
:1055D0000000084064010020CDCCCCCC70B586B072
:1055E00006461D4A03AB92E8030083E8030000254A
:1055F0001DE0C5EB0513194A13441B5D7BB9334607
:105600002246294601A8FFF71BFF049B029A9A42F3
:1056100005DD03AB01AA92E8030083E8030001342F
:10562000E4B200E000240E2CE3D90135EDB20E2DDA
:10563000F8D99DF90C30ADF800309DF90D30ADF87A
:105640000230009B00209AB262F30F001B0C63F340
:105650001F4006B070BD00BF3C5A00084404002043
:10566000084B1B78012B0CD100B583B00120FFF74C
:10567000B5FFC0F30741C0B2FFF714FB03B05DF8FC
:1056800004FB7047D8000020084B1B7863B900B5B5
:1056900083B00020FFF7A2FFC0F30741C0B2FFF7BD
:1056A00001FB03B05DF804FB704700BFD800002089
:1056B00008B5154B1B78012B24D1FFF72BFA134BA0
:1056C000187028B10022104B1A700222104B1A7069
:1056D000104B1B78012B02D0022B03D004E0FFF704
:1056E000BFFF01E0FFF7D0FF0A4B1B7853B1FFF774
:1056F00011FA064B187028B10022034B1A700222CF
:10570000034B1A7008BD00BF6D0100206F0100201F
:105710006C01002070010020002103E00B4B5B585E
:10572000435004310A480B4B42189A42F6D30A4AB6
:1057300002E0002342F8043B084B9A42F9D3FDF7FC
:1057400049FA00F00FF8FBF767FB7047C05D0008EF
:10575000000000204801002048010020CC07002064
:10576000FEE700000E4B70B51E460E4C0025E41AF5
:10577000A410A54204D056F8253098470135F8E723
:1057800000F046F9084B094C1E46E41AA410002507
:10579000A54204D056F8253098470135F8E770BD8A
:1057A000B85D0008B85D0008B85D0008BC5D000881
:1057B00003460244934202D003F8011BFAE7704704
:1057C0002DE9F04F8BB004460D4600F055F8284BFC
:1057D000064693F900A00F46BAF1FF3F12D02246C9
:1057E0002B4620462946FBF713F9834650B94FF064
:1057F00000084FF000092046294642464B46FBF779
:10580000DFF820B9304639460BB0BDE8F08F194AB1
:105810000123CDF820B0CDE90445CDE90245019240
:105820000093BAF1000F15D042464B464046494618
:10583000FAF77EFFBAF1020FCDE906010CD100F0B4
:10584000E1F821230360089B63B9DDE906010BB091
:10585000BDE8F08FCDE90689684600F0D1F8002850
:10586000F1D1ECE700F0CEF8089B0360EDE700BF54
:1058700044010020B05D00082DE9F0415F4E0C4668
:10588000B6460E407645054600F0988000290B4646
:10589000024674DD5FEA215E7FD0AEF2FF3EC3F3C5
:1058A00013031EF0010F43F4801363D100273E461B
:1058B00003EBD2710B444FEA6E0E520016204FF4E8
:1058C000001174189C424FEAD2754FEA420202DC82
:1058D0001B1B66180F44013805EB43034FEA5101C7
:1058E000EFD1844620244FF0004109E020D003EBA3
:1058F000D275013C4FEA51012B444FEA420220D0BD
:105900009E4201EB0C05F1DA002D05EB010C09DBE1
:10591000B0469542A3EB060300D9013B4646521B15
:105920000844E4E7BCF1000FF2DB06F10108F0E700
:10593000954217D8002D05EB010C49DB9846002352
:10594000ECE7134310D140087B1003F17F5303F5BC
:105950000013FA0703EB0E57394648BF40F00040EA
:10596000BDE8F0813346C2E7411C35D000F00103A9
:105970001844E8E75B0003EBD273520096E721F08E
:1059800000460643ECD079BB8E46D30AAEF1150E25
:105990005205002BF9D0DD0221D4002100E00146A0
:1059A0005B00DC0201F10100F9D5C0F1200422FA0C
:1059B00004F42343C1EB0E0E82406EE702460B4611
:1059C000FAF78CFD2A462346FAF7D6FBBDE8F081AC
:1059D000BCF1000FA9DAB1E701372046B4E7202473
:1059E0004FF0FF310020E2E702460B46FAF7C2FB18
:1059F00002460B46FAF79CFEB2E700BF0000F07FBC
:105A000000207047014B1868704700BF400100201C
:105A1000F8B500BFF8BC08BC9E467047F8B500BF9B
:085A2000F8BC08BC9E4670476B
:105A280002030405060708090A0B0C0D0E0F1010D7
:105A380001020000FFFF0000FFFFFFFF0000000061
:105A48000000000001020304060708090000000026
:105A580000005C0000000000060006000000287C32
:105A6800287C28005C54FE5474004420100844002C
:105A7800285454205000060000000000384400005C
:105A88000000443800000000020702000000101067
:105A98007C101000C0000000000010101010100052
:105AA80040000000000060100C0000007C64544CB2
:105AB8007C00487C4000000064545454480044541E
:105AC80054546C003C20702020005C545454240032
